:1000000009C00EC00DC00CC00BC00AC009C008C09A
:1000100007C006C011241FBECFE9CDBFF6D026C150
:10002000EFCF0F931F93FC012130310531F51016EE
:1000300011060CF042C051E001C0550F4A95EAF795
:1000400020E030E088B3452F482BCF01022E02C0BC
:10005000959587950A94E2F781709927062E02C03C
:10006000880F991F0A94E2F7842B88BB18BA2F5F78
:100070003F4F2017310731F720C001501109EAF036
:1000800081E001C0880F4A95EAF728B3982F922B98
:100090009F01002E02C0359527950A94E2F7217042
:1000A0003327062E02C0220F331F0A94E2F7292BB2
:1000B00028BB18BA0150110940F71F910F910895FC
:1000C000EF92FF920F931F93CF93DF93EA0143E0E8
:1000D00050E09A01281B390BC90121E030E0F901F9
:1000E00002C0EE0FFF1F8A95E2F7CF018095909531
:1000F0008F709927461B570B02C0220F331F4A955A
:10010000E2F722953295307F3227207F3227280F61
:10011000391F7901FF242097D9F418BA00E110E0C3
:1001200021E030E042E050E061E070E080E09E2DB0
:1001300078DF81E088BB18BA21E030E045E050E08C
:1001400064E070E080E090E06CDF88E088BB3BC05A
:10015000C130D105D1F418BA00E110E021E030E05F
:1001600042E050E061E070E0C7015BDF81E088BB06
:1001700018BA21E030E045E050E064E070E080E053
:1001800090E04FDF88E088BB39C0C230D105D9F498
:1001900018BA00E110E021E030E042E050E064E015
:1001A00070E080E09E2D3DDF88E088BB18BA21E03A
:1001B00030E042E050E061E070E080E090E031DF6C
:1001C00081E088BB1BC02397C9F418BA00E110E096
:1001D00021E030E042E050E064E070E0C70121DF60
:1001E00088E088BB18BA21E030E042E050E061E0EE
:1001F00070E080E090E015DF81E088BBDF91CF9177
:100200001F910F91FF90EF9008958FEF87BB812C86
:10021000912CA82CB92CC82CD92CE82CF92C23C053
:10022000A701BE01C8014CDF83EC99E00197F1F70B
:1002300000C000002196C430D10591F787EA91E60D
:100240000197F1F700C000000F5F1F4F0430110548
:1002500019F0CC2DDD2DE4CF9FEFE91AF90A84E0E7
:10026000E816F104D1F20A2D1B2DF3CFF894FFCF3D
:00000001FF
